{
  "_format": "hh-sol-artifact-1",
  "contractName": "MyEpicNFT",
  "sourceName": "contracts/MyEpicNFT.sol",
  "abi": [
    {
      "inputs": [],
      "stateMutability": "nonpayable",
      "type": "constructor"
    },
    {
      "anonymous": false,
      "inputs": [
        {
          "indexed": true,
          "internalType": "address",
          "name": "owner",
          "type": "address"
        },
        {
          "indexed": true,
          "internalType": "address",
          "name": "approved",
          "type": "address"
        },
        {
          "indexed": true,
          "internalType": "uint256",
          "name": "tokenId",
          "type": "uint256"
        }
      ],
      "name": "Approval",
      "type": "event"
    },
    {
      "anonymous": false,
      "inputs": [
        {
          "indexed": true,
          "internalType": "address",
          "name": "owner",
          "type": "address"
        },
        {
          "indexed": true,
          "internalType": "address",
          "name": "operator",
          "type": "address"
        },
        {
          "indexed": false,
          "internalType": "bool",
          "name": "approved",
          "type": "bool"
        }
      ],
      "name": "ApprovalForAll",
      "type": "event"
    },
    {
      "anonymous": false,
      "inputs": [
        {
          "indexed": false,
          "internalType": "address",
          "name": "sender",
          "type": "address"
        },
        {
          "indexed": false,
          "internalType": "uint256",
          "name": "tokenId",
          "type": "uint256"
        }
      ],
      "name": "NewEpicNFTMinted",
      "type": "event"
    },
    {
      "anonymous": false,
      "inputs": [
        {
          "indexed": true,
          "internalType": "address",
          "name": "from",
          "type": "address"
        },
        {
          "indexed": true,
          "internalType": "address",
          "name": "to",
          "type": "address"
        },
        {
          "indexed": true,
          "internalType": "uint256",
          "name": "tokenId",
          "type": "uint256"
        }
      ],
      "name": "Transfer",
      "type": "event"
    },
    {
      "inputs": [
        {
          "internalType": "address",
          "name": "to",
          "type": "address"
        },
        {
          "internalType": "uint256",
          "name": "tokenId",
          "type": "uint256"
        }
      ],
      "name": "approve",
      "outputs": [],
      "stateMutability": "nonpayable",
      "type": "function"
    },
    {
      "inputs": [
        {
          "internalType": "address",
          "name": "owner",
          "type": "address"
        }
      ],
      "name": "balanceOf",
      "outputs": [
        {
          "internalType": "uint256",
          "name": "",
          "type": "uint256"
        }
      ],
      "stateMutability": "view",
      "type": "function"
    },
    {
      "inputs": [
        {
          "internalType": "uint256",
          "name": "tokenId",
          "type": "uint256"
        }
      ],
      "name": "getApproved",
      "outputs": [
        {
          "internalType": "address",
          "name": "",
          "type": "address"
        }
      ],
      "stateMutability": "view",
      "type": "function"
    },
    {
      "inputs": [],
      "name": "getTotalNFTsMintedSoFar",
      "outputs": [
        {
          "internalType": "uint256",
          "name": "",
          "type": "uint256"
        }
      ],
      "stateMutability": "view",
      "type": "function"
    },
    {
      "inputs": [
        {
          "internalType": "address",
          "name": "owner",
          "type": "address"
        },
        {
          "internalType": "address",
          "name": "operator",
          "type": "address"
        }
      ],
      "name": "isApprovedForAll",
      "outputs": [
        {
          "internalType": "bool",
          "name": "",
          "type": "bool"
        }
      ],
      "stateMutability": "view",
      "type": "function"
    },
    {
      "inputs": [],
      "name": "makeAnEpicNFT",
      "outputs": [],
      "stateMutability": "nonpayable",
      "type": "function"
    },
    {
      "inputs": [],
      "name": "name",
      "outputs": [
        {
          "internalType": "string",
          "name": "",
          "type": "string"
        }
      ],
      "stateMutability": "view",
      "type": "function"
    },
    {
      "inputs": [
        {
          "internalType": "uint256",
          "name": "tokenId",
          "type": "uint256"
        }
      ],
      "name": "ownerOf",
      "outputs": [
        {
          "internalType": "address",
          "name": "",
          "type": "address"
        }
      ],
      "stateMutability": "view",
      "type": "function"
    },
    {
      "inputs": [
        {
          "internalType": "uint256",
          "name": "tokenId",
          "type": "uint256"
        }
      ],
      "name": "pickRandomFirstWord",
      "outputs": [
        {
          "internalType": "string",
          "name": "",
          "type": "string"
        }
      ],
      "stateMutability": "view",
      "type": "function"
    },
    {
      "inputs": [
        {
          "internalType": "uint256",
          "name": "tokenId",
          "type": "uint256"
        }
      ],
      "name": "pickRandomFourthWord",
      "outputs": [
        {
          "internalType": "string",
          "name": "",
          "type": "string"
        }
      ],
      "stateMutability": "view",
      "type": "function"
    },
    {
      "inputs": [
        {
          "internalType": "uint256",
          "name": "tokenId",
          "type": "uint256"
        }
      ],
      "name": "pickRandomSecondWord",
      "outputs": [
        {
          "internalType": "string",
          "name": "",
          "type": "string"
        }
      ],
      "stateMutability": "view",
      "type": "function"
    },
    {
      "inputs": [
        {
          "internalType": "uint256",
          "name": "tokenId",
          "type": "uint256"
        }
      ],
      "name": "pickRandomThirdWord",
      "outputs": [
        {
          "internalType": "string",
          "name": "",
          "type": "string"
        }
      ],
      "stateMutability": "view",
      "type": "function"
    },
    {
      "inputs": [
        {
          "internalType": "address",
          "name": "from",
          "type": "address"
        },
        {
          "internalType": "address",
          "name": "to",
          "type": "address"
        },
        {
          "internalType": "uint256",
          "name": "tokenId",
          "type": "uint256"
        }
      ],
      "name": "safeTransferFrom",
      "outputs": [],
      "stateMutability": "nonpayable",
      "type": "function"
    },
    {
      "inputs": [
        {
          "internalType": "address",
          "name": "from",
          "type": "address"
        },
        {
          "internalType": "address",
          "name": "to",
          "type": "address"
        },
        {
          "internalType": "uint256",
          "name": "tokenId",
          "type": "uint256"
        },
        {
          "internalType": "bytes",
          "name": "_data",
          "type": "bytes"
        }
      ],
      "name": "safeTransferFrom",
      "outputs": [],
      "stateMutability": "nonpayable",
      "type": "function"
    },
    {
      "inputs": [
        {
          "internalType": "address",
          "name": "operator",
          "type": "address"
        },
        {
          "internalType": "bool",
          "name": "approved",
          "type": "bool"
        }
      ],
      "name": "setApprovalForAll",
      "outputs": [],
      "stateMutability": "nonpayable",
      "type": "function"
    },
    {
      "inputs": [
        {
          "internalType": "bytes4",
          "name": "interfaceId",
          "type": "bytes4"
        }
      ],
      "name": "supportsInterface",
      "outputs": [
        {
          "internalType": "bool",
          "name": "",
          "type": "bool"
        }
      ],
      "stateMutability": "view",
      "type": "function"
    },
    {
      "inputs": [],
      "name": "symbol",
      "outputs": [
        {
          "internalType": "string",
          "name": "",
          "type": "string"
        }
      ],
      "stateMutability": "view",
      "type": "function"
    },
    {
      "inputs": [
        {
          "internalType": "uint256",
          "name": "tokenId",
          "type": "uint256"
        }
      ],
      "name": "tokenURI",
      "outputs": [
        {
          "internalType": "string",
          "name": "",
          "type": "string"
        }
      ],
      "stateMutability": "view",
      "type": "function"
    },
    {
      "inputs": [
        {
          "internalType": "address",
          "name": "from",
          "type": "address"
        },
        {
          "internalType": "address",
          "name": "to",
          "type": "address"
        },
        {
          "internalType": "uint256",
          "name": "tokenId",
          "type": "uint256"
        }
      ],
      "name": "transferFrom",
      "outputs": [],
      "stateMutability": "nonpayable",
      "type": "function"
    }
  ],
  "bytecode": "0x608060405260405180610180016040528061015081526020016200470e610150913960089080519060200190620000389291906200080d565b506040518061010001604052806040518060400160405280600981526020017f446576656c6f706572000000000000000000000000000000000000000000000081525081526020016040518060400160405280600a81526020017f50726f6772616d6d65720000000000000000000000000000000000000000000081525081526020016040518060400160405280600781526020017f466f756e6465720000000000000000000000000000000000000000000000000081525081526020016040518060400160405280600281526020017f565000000000000000000000000000000000000000000000000000000000000081525081526020016040518060400160405280600f81526020017f50726f64756374204d616e61676572000000000000000000000000000000000081525081526020016040518060400160405280600c81526020017f536f6c696469747920446576000000000000000000000000000000000000000081525081526020016040518060400160405280600281526020017f564300000000000000000000000000000000000000000000000000000000000081525081526020016040518060400160405280601281526020017f446576656c6f706572204164766f63617465000000000000000000000000000081525081525060099060086200022d9291906200089e565b506040518060e001604052806040518060400160405280600d81526020017f616e20452d636f6d6d657263650000000000000000000000000000000000000081525081526020016040518060400160405280600a81526020017f6120526f626f746963730000000000000000000000000000000000000000000081525081526020016040518060400160405280600c81526020017f616e204165726f7370616365000000000000000000000000000000000000000081525081526020016040518060400160405280600681526020017f612053414153000000000000000000000000000000000000000000000000000081525081526020016040518060400160405280600581526020017f612042324200000000000000000000000000000000000000000000000000000081525081526020016040518060400160405280600881526020017f612043727970746f00000000000000000000000000000000000000000000000081525081526020016040518060400160405280600681526020017f6120446566690000000000000000000000000000000000000000000000000000815250815250600a906007620003e692919062000905565b506040518060e001604052806040518060400160405280601181526020017f7374616e642d7570206d656574696e677300000000000000000000000000000081525081526020016040518060400160405280600f81526020017f70726f6a65637420737072696e7473000000000000000000000000000000000081525081526020016040518060400160405280600b81526020017f75736572732063616c6c7300000000000000000000000000000000000000000081525081526020016040518060400160405280600681526020017f74686520504d000000000000000000000000000000000000000000000000000081525081526020016040518060400160405280601181526020017f746865207072657373206f75747369646500000000000000000000000000000081525081526020016040518060400160405280600f81526020017f7468652063727970746f20464f4d4f000000000000000000000000000000000081525081526020016040518060400160405280601581526020017f7468652062756720696e2070726f64756374696f6e0000000000000000000000815250815250600b9060076200059f92919062000905565b506040518060e001604052806040518060400160405280600b81526020017f436861696e6c696e6b656400000000000000000000000000000000000000000081525081526020016040518060400160405280600881526020017f416371756972656400000000000000000000000000000000000000000000000081525081526020016040518060400160405280601081526020017f4d617374657273206f66207363616c650000000000000000000000000000000081525081526020016040518060400160405280601281526020017f4c616e64206f6620746865204769616e7473000000000000000000000000000081525081526020016040518060400160405280600481526020017f4131365a0000000000000000000000000000000000000000000000000000000081525081526020016040518060400160405280601781526020017f7468652057616c6c20737472656574206a6f75726e616c00000000000000000081525081526020016040518060400160405280600f81526020017f746865204c657820467269646d616e0000000000000000000000000000000000815250815250600c9060076200075892919062000905565b503480156200076657600080fd5b506040518060400160405280600b81526020017f44494e4b592054414c45530000000000000000000000000000000000000000008152506040518060400160405280600881526020017f44494e4b54414c450000000000000000000000000000000000000000000000008152508160009080519060200190620007eb9291906200080d565b508060019080519060200190620008049291906200080d565b50505062000a5e565b8280546200081b90620009f9565b90600052602060002090601f0160209004810192826200083f57600085556200088b565b82601f106200085a57805160ff19168380011785556200088b565b828001600101855582156200088b579182015b828111156200088a5782518255916020019190600101906200086d565b5b5090506200089a91906200096c565b5090565b828054828255906000526020600020908101928215620008f2579160200282015b82811115620008f1578251829080519060200190620008e09291906200080d565b5091602001919060010190620008bf565b5b5090506200090191906200098b565b5090565b82805482825590600052602060002090810192821562000959579160200282015b8281111562000958578251829080519060200190620009479291906200080d565b509160200191906001019062000926565b5b5090506200096891906200098b565b5090565b5b80821115620009875760008160009055506001016200096d565b5090565b5b80821115620009af5760008181620009a59190620009b3565b506001016200098c565b5090565b508054620009c190620009f9565b6000825580601f10620009d55750620009f6565b601f016020900490600052602060002090810190620009f591906200096c565b5b50565b6000600282049050600182168062000a1257607f821691505b6020821081141562000a295762000a2862000a2f565b5b50919050565b7f4e487b7100000000000000000000000000000000000000000000000000000000600052602260045260246000fd5b613ca08062000a6e6000396000f3fe608060405234801561001057600080fd5b50600436106101215760003560e01c806370a08231116100ad578063b88d4fde11610071578063b88d4fde14610340578063c575757a1461035c578063c87b56dd1461038c578063de9d132f146103bc578063e985e9c5146103c657610121565b806370a08231146102765780638f8d7a14146102a657806395d89b41146102d6578063a22cb465146102f4578063b187301f1461031057610121565b8063095ea7b3116100f4578063095ea7b3146101c257806323b872dd146101de5780632de38d68146101fa57806342842e0e1461022a5780636352211e1461024657610121565b806301ffc9a714610126578063060475901461015657806306fdde0314610174578063081812fc14610192575b600080fd5b610140600480360381019061013b91906126ae565b6103f6565b60405161014d91906134f6565b60405180910390f35b61015e6104d8565b60405161016b9190613791565b60405180910390f35b61017c6104f5565b6040516101899190613511565b60405180910390f35b6101ac60048036038101906101a79190612700565b610587565b6040516101b99190613466565b60405180910390f35b6101dc60048036038101906101d79190612672565b61060c565b005b6101f860048036038101906101f3919061256c565b610724565b005b610214600480360381019061020f9190612700565b610784565b6040516102219190613511565b60405180910390f35b610244600480360381019061023f919061256c565b6108a2565b005b610260600480360381019061025b9190612700565b6108c2565b60405161026d9190613466565b60405180910390f35b610290600480360381019061028b9190612507565b610974565b60405161029d9190613791565b60405180910390f35b6102c060048036038101906102bb9190612700565b610a2c565b6040516102cd9190613511565b60405180910390f35b6102de610b4a565b6040516102eb9190613511565b60405180910390f35b61030e60048036038101906103099190612636565b610bdc565b005b61032a60048036038101906103259190612700565b610d5d565b6040516103379190613511565b60405180910390f35b61035a600480360381019061035591906125bb565b610e7b565b005b61037660048036038101906103719190612700565b610edd565b6040516103839190613511565b60405180910390f35b6103a660048036038101906103a19190612700565b610ffb565b6040516103b39190613511565b60405180910390f35b6103c461114d565b005b6103e060048036038101906103db9190612530565b611387565b6040516103ed91906134f6565b60405180910390f35b60007f80ac58cd000000000000000000000000000000000000000000000000000000007bffffffffffffffffffffffffffffffffffffffffffffffffffffffff1916827bffffffffffffffffffffffffffffffffffffffffffffffffffffffff191614806104c157507f5b5e139f000000000000000000000000000000000000000000000000000000007bffffffffffffffffffffffffffffffffffffffffffffffffffffffff1916827bffffffffffffffffffffffffffffffffffffffffffffffffffffffff1916145b806104d157506104d08261141b565b5b9050919050565b600060016104e66007611485565b6104f09190613946565b905090565b60606000805461050490613a30565b80601f016020809104026020016040519081016040528092919081815260200182805461053090613a30565b801561057d5780601f106105525761010080835404028352916020019161057d565b820191906000526020600020905b81548152906001019060200180831161056057829003601f168201915b5050505050905090565b600061059282611493565b6105d1576040517f08c379a00000000000000000000000000000000000000000000000000000000081526004016105c8906136f1565b60405180910390fd5b6004600083815260200190815260200160002060009054906101000a900473ffffffffffffffffffffffffffffffffffffffff169050919050565b6000610617826108c2565b90508073ffffffffffffffffffffffffffffffffffffffff168373ffffffffffffffffffffffffffffffffffffffff161415610688576040517f08c379a000000000000000000000000000000000000000000000000000000000815260040161067f90613751565b60405180910390fd5b8073ffffffffffffffffffffffffffffffffffffffff166106a76114ff565b73ffffffffffffffffffffffffffffffffffffffff1614806106d657506106d5816106d06114ff565b611387565b5b610715576040517f08c379a000000000000000000000000000000000000000000000000000000000815260040161070c90613611565b60405180910390fd5b61071f8383611507565b505050565b61073561072f6114ff565b826115c0565b610774576040517f08c379a000000000000000000000000000000000000000000000000000000000815260040161076b90613771565b60405180910390fd5b61077f83838361169e565b505050565b606060006107b8610794846118fa565b6040516020016107a49190613422565b604051602081830303815290604052611aa7565b9050600980549050816107cb9190613aab565b905060098181548110610807577f4e487b7100000000000000000000000000000000000000000000000000000000600052603260045260246000fd5b90600052602060002001805461081c90613a30565b80601f016020809104026020016040519081016040528092919081815260200182805461084890613a30565b80156108955780601f1061086a57610100808354040283529160200191610895565b820191906000526020600020905b81548152906001019060200180831161087857829003601f168201915b5050505050915050919050565b6108bd83838360405180602001604052806000815250610e7b565b505050565b6000806002600084815260200190815260200160002060009054906101000a900473ffffffffffffffffffffffffffffffffffffffff169050600073ffffffffffffffffffffffffffffffffffffffff168173ffffffffffffffffffffffffffffffffffffffff16141561096b576040517f08c379a000000000000000000000000000000000000000000000000000000000815260040161096290613651565b60405180910390fd5b80915050919050565b60008073ffffffffffffffffffffffffffffffffffffffff168273ffffffffffffffffffffffffffffffffffffffff1614156109e5576040517f08c379a00000000000000000000000000000000000000000000000000000000081526004016109dc90613631565b60405180910390fd5b600360008373ffffffffffffffffffffffffffffffffffffffff1673ffffffffffffffffffffffffffffffffffffffff168152602001908152602001600020549050919050565b60606000610a60610a3c846118fa565b604051602001610a4c9190613302565b604051602081830303815290604052611aa7565b9050600c8054905081610a739190613aab565b9050600c8181548110610aaf577f4e487b7100000000000000000000000000000000000000000000000000000000600052603260045260246000fd5b906000526020600020018054610ac490613a30565b80601f0160208091040260200160405190810160405280929190818152602001828054610af090613a30565b8015610b3d5780601f10610b1257610100808354040283529160200191610b3d565b820191906000526020600020905b815481529060010190602001808311610b2057829003601f168201915b5050505050915050919050565b606060018054610b5990613a30565b80601f0160208091040260200160405190810160405280929190818152602001828054610b8590613a30565b8015610bd25780601f10610ba757610100808354040283529160200191610bd2565b820191906000526020600020905b815481529060010190602001808311610bb557829003601f168201915b5050505050905090565b610be46114ff565b73ffffffffffffffffffffffffffffffffffffffff168273ffffffffffffffffffffffffffffffffffffffff161415610c52576040517f08c379a0000000000000000000000000000000000000000000000000000000008152600401610c49906135d1565b60405180910390fd5b8060056000610c5f6114ff565b73ffffffffffffffffffffffffffffffffffffffff1673ffffffffffffffffffffffffffffffffffffffff16815260200190815260200160002060008473ffffffffffffffffffffffffffffffffffffffff1673ffffffffffffffffffffffffffffffffffffffff16815260200190815260200160002060006101000a81548160ff0219169083151502179055508173ffffffffffffffffffffffffffffffffffffffff16610d0c6114ff565b73ffffffffffffffffffffffffffffffffffffffff167f17307eab39ab6107e8899845ad3d59bd9653f200f220920489ca2b5937696c3183604051610d5191906134f6565b60405180910390a35050565b60606000610d91610d6d846118fa565b604051602001610d7d9190613346565b604051602081830303815290604052611aa7565b9050600a8054905081610da49190613aab565b9050600a8181548110610de0577f4e487b7100000000000000000000000000000000000000000000000000000000600052603260045260246000fd5b906000526020600020018054610df590613a30565b80601f0160208091040260200160405190810160405280929190818152602001828054610e2190613a30565b8015610e6e5780601f10610e4357610100808354040283529160200191610e6e565b820191906000526020600020905b815481529060010190602001808311610e5157829003601f168201915b5050505050915050919050565b610e8c610e866114ff565b836115c0565b610ecb576040517f08c379a0000000000000000000000000000000000000000000000000000000008152600401610ec290613771565b60405180910390fd5b610ed784848484611ada565b50505050565b60606000610f11610eed846118fa565b604051602001610efd9190613324565b604051602081830303815290604052611aa7565b9050600b8054905081610f249190613aab565b9050600b8181548110610f60577f4e487b7100000000000000000000000000000000000000000000000000000000600052603260045260246000fd5b906000526020600020018054610f7590613a30565b80601f0160208091040260200160405190810160405280929190818152602001828054610fa190613a30565b8015610fee5780601f10610fc357610100808354040283529160200191610fee565b820191906000526020600020905b815481529060010190602001808311610fd157829003601f168201915b5050505050915050919050565b606061100682611493565b611045576040517f08c379a000000000000000000000000000000000000000000000000000000000815260040161103c906136d1565b60405180910390fd5b600060066000848152602001908152602001600020805461106590613a30565b80601f016020809104026020016040519081016040528092919081815260200182805461109190613a30565b80156110de5780601f106110b3576101008083540402835291602001916110de565b820191906000526020600020905b8154815290600101906020018083116110c157829003601f168201915b5050505050905060006110ef611b36565b9050600081511415611105578192505050611148565b60008251111561113a5780826040516020016111229291906132af565b60405160208183030381529060405292505050611148565b61114384611b4d565b925050505b919050565b60006111596007611485565b90506033811061119e576040517f08c379a000000000000000000000000000000000000000000000000000000000815260040161119590613691565b60405180910390fd5b60006111a982610784565b905060006111b683610d5d565b905060006111c384610edd565b905060006111d085610a2c565b90506000848484846040516020016111eb9493929190613368565b604051602081830303815290604052905060006008826040516020016112129291906132d3565b604051602081830303815290604052905060006112578361123284611bf4565b6040516020016112439291906133dd565b604051602081830303815290604052611bf4565b905060008160405160200161126c9190613444565b60405160208183030381529060405290506112bb6040518060400160405280601581526020017f0a2d2d2d2d2d2d2d2d2d2d2d2d2d2d2d2d2d2d2d2d0000000000000000000000815250611db2565b6112c481611db2565b6113026040518060400160405280601581526020017f2d2d2d2d2d2d2d2d2d2d2d2d2d2d2d2d2d2d2d2d0a0000000000000000000000815250611db2565b61130c338a611e4b565b6113168982611e69565b6113206007611edd565b611343604051806060016040528060258152602001613c06602591398a33611ef3565b7febb98688741ffa4c7589bf325de30cf7becb63de567842e1ccdb6cb949fdc82c338a6040516113749291906134cd565b60405180910390a1505050505050505050565b6000600560008473ffffffffffffffffffffffffffffffffffffffff1673ffffffffffffffffffffffffffffffffffffffff16815260200190815260200160002060008373ffffffffffffffffffffffffffffffffffffffff1673ffffffffffffffffffffffffffffffffffffffff16815260200190815260200160002060009054906101000a900460ff16905092915050565b60007f01ffc9a7000000000000000000000000000000000000000000000000000000007bffffffffffffffffffffffffffffffffffffffffffffffffffffffff1916827bffffffffffffffffffffffffffffffffffffffffffffffffffffffff1916149050919050565b600081600001549050919050565b60008073ffffffffffffffffffffffffffffffffffffffff166002600084815260200190815260200160002060009054906101000a900473ffffffffffffffffffffffffffffffffffffffff1673ffffffffffffffffffffffffffffffffffffffff1614159050919050565b600033905090565b816004600083815260200190815260200160002060006101000a81548173ffffffffffffffffffffffffffffffffffffffff021916908373ffffffffffffffffffffffffffffffffffffffff160217905550808273ffffffffffffffffffffffffffffffffffffffff1661157a836108c2565b73ffffffffffffffffffffffffffffffffffffffff167f8c5be1e5ebec7d5bd14f71427d1e84f3dd0314c0f7b2291e5b200ac8c7c3b92560405160405180910390a45050565b60006115cb82611493565b61160a576040517f08c379a0000000000000000000000000000000000000000000000000000000008152600401611601906135f1565b60405180910390fd5b6000611615836108c2565b90508073ffffffffffffffffffffffffffffffffffffffff168473ffffffffffffffffffffffffffffffffffffffff16148061168457508373ffffffffffffffffffffffffffffffffffffffff1661166c84610587565b73ffffffffffffffffffffffffffffffffffffffff16145b8061169557506116948185611387565b5b91505092915050565b8273ffffffffffffffffffffffffffffffffffffffff166116be826108c2565b73ffffffffffffffffffffffffffffffffffffffff1614611714576040517f08c379a000000000000000000000000000000000000000000000000000000000815260040161170b90613711565b60405180910390fd5b600073ffffffffffffffffffffffffffffffffffffffff168273ffffffffffffffffffffffffffffffffffffffff161415611784576040517f08c379a000000000000000000000000000000000000000000000000000000000815260040161177b906135b1565b60405180910390fd5b61178f838383611f92565b61179a600082611507565b6001600360008573ffffffffffffffffffffffffffffffffffffffff1673ffffffffffffffffffffffffffffffffffffffff16815260200190815260200160002060008282546117ea9190613946565b925050819055506001600360008473ffffffffffffffffffffffffffffffffffffffff1673ffffffffffffffffffffffffffffffffffffffff16815260200190815260200160002060008282546118419190613865565b92505081905550816002600083815260200190815260200160002060006101000a81548173ffffffffffffffffffffffffffffffffffffffff021916908373ffffffffffffffffffffffffffffffffffffffff160217905550808273ffffffffffffffffffffffffffffffffffffffff168473ffffffffffffffffffffffffffffffffffffffff167fddf252ad1be2c89b69c2b068fc378daa952ba7f163c4a11628f55a4df523b3ef60405160405180910390a4505050565b60606000821415611942576040518060400160405280600181526020017f30000000000000000000000000000000000000000000000000000000000000008152509050611aa2565b600082905060005b6000821461197457808061195d90613a62565b915050600a8261196d91906138bb565b915061194a565b60008167ffffffffffffffff8111156119b6577f4e487b7100000000000000000000000000000000000000000000000000000000600052604160045260246000fd5b6040519080825280601f01601f1916602001820160405280156119e85781602001600182028036833780820191505090505b5090505b60008514611a9b57600182611a019190613946565b9150600a85611a109190613aab565b6030611a1c9190613865565b60f81b818381518110611a58577f4e487b7100000000000000000000000000000000000000000000000000000000600052603260045260246000fd5b60200101907effffffffffffffffffffffffffffffffffffffffffffffffffffffffffffff1916908160001a905350600a85611a9491906138bb565b94506119ec565b8093505050505b919050565b600081604051602001611aba9190613298565b6040516020818303038152906040528051906020012060001c9050919050565b611ae584848461169e565b611af184848484611f97565b611b30576040517f08c379a0000000000000000000000000000000000000000000000000000000008152600401611b2790613571565b60405180910390fd5b50505050565b606060405180602001604052806000815250905090565b6060611b5882611493565b611b97576040517f08c379a0000000000000000000000000000000000000000000000000000000008152600401611b8e90613731565b60405180910390fd5b6000611ba1611b36565b90506000815111611bc15760405180602001604052806000815250611bec565b80611bcb846118fa565b604051602001611bdc9291906132af565b6040516020818303038152906040525b915050919050565b60606000825190506000811415611c1d5760405180602001604052806000815250915050611dad565b60006003600283611c2e9190613865565b611c3891906138bb565b6004611c4491906138ec565b90506000602082611c559190613865565b67ffffffffffffffff811115611c94577f4e487b7100000000000000000000000000000000000000000000000000000000600052604160045260246000fd5b6040519080825280601f01601f191660200182016040528015611cc65781602001600182028036833780820191505090505b5090506000604051806060016040528060408152602001613c2b604091399050600181016020830160005b86811015611d6a5760038101905062ffffff818a015116603f8160121c168401518060081b905060ff603f83600c1c1686015116810190508060081b905060ff603f8360061c1686015116810190508060081b905060ff603f831686015116810190508060e01b90508084526004840193505050611cf1565b506003860660018114611d845760028114611d9457611d9f565b613d3d60f01b6002830352611d9f565b603d60f81b60018303525b508484525050819450505050505b919050565b611e4881604051602401611dc69190613511565b6040516020818303038152906040527f41304fac000000000000000000000000000000000000000000000000000000007bffffffffffffffffffffffffffffffffffffffffffffffffffffffff19166020820180517bffffffffffffffffffffffffffffffffffffffffffffffffffffffff838183161783525050505061212e565b50565b611e65828260405180602001604052806000815250612157565b5050565b611e7282611493565b611eb1576040517f08c379a0000000000000000000000000000000000000000000000000000000008152600401611ea890613671565b60405180910390fd5b80600660008481526020019081526020016000209080519060200190611ed8929190612393565b505050565b6001816000016000828254019250508190555050565b611f8d838383604051602401611f0b93929190613533565b6040516020818303038152906040527fe3849f79000000000000000000000000000000000000000000000000000000007bffffffffffffffffffffffffffffffffffffffffffffffffffffffff19166020820180517bffffffffffffffffffffffffffffffffffffffffffffffffffffffff838183161783525050505061212e565b505050565b505050565b6000611fb88473ffffffffffffffffffffffffffffffffffffffff166121b2565b15612121578373ffffffffffffffffffffffffffffffffffffffff1663150b7a02611fe16114ff565b8786866040518563ffffffff1660e01b81526004016120039493929190613481565b602060405180830381600087803b15801561201d57600080fd5b505af192505050801561204e57506040513d601f19601f8201168201806040525081019061204b91906126d7565b60015b6120d1573d806000811461207e576040519150601f19603f3d011682016040523d82523d6000602084013e612083565b606091505b506000815114156120c9576040517f08c379a00000000000000000000000000000000000000000000000000000000081526004016120c090613571565b60405180910390fd5b805181602001fd5b63150b7a0260e01b7bffffffffffffffffffffffffffffffffffffffffffffffffffffffff1916817bffffffffffffffffffffffffffffffffffffffffffffffffffffffff191614915050612126565b600190505b949350505050565b60008151905060006a636f6e736f6c652e6c6f679050602083016000808483855afa5050505050565b61216183836121c5565b61216e6000848484611f97565b6121ad576040517f08c379a00000000000000000000000000000000000000000000000000000000081526004016121a490613571565b60405180910390fd5b505050565b600080823b905060008111915050919050565b600073ffffffffffffffffffffffffffffffffffffffff168273ffffffffffffffffffffffffffffffffffffffff161415612235576040517f08c379a000000000000000000000000000000000000000000000000000000000815260040161222c906136b1565b60405180910390fd5b61223e81611493565b1561227e576040517f08c379a000000000000000000000000000000000000000000000000000000000815260040161227590613591565b60405180910390fd5b61228a60008383611f92565b6001600360008473ffffffffffffffffffffffffffffffffffffffff1673ffffffffffffffffffffffffffffffffffffffff16815260200190815260200160002060008282546122da9190613865565b92505081905550816002600083815260200190815260200160002060006101000a81548173ffffffffffffffffffffffffffffffffffffffff021916908373ffffffffffffffffffffffffffffffffffffffff160217905550808273ffffffffffffffffffffffffffffffffffffffff16600073ffffffffffffffffffffffffffffffffffffffff167fddf252ad1be2c89b69c2b068fc378daa952ba7f163c4a11628f55a4df523b3ef60405160405180910390a45050565b82805461239f90613a30565b90600052602060002090601f0160209004810192826123c15760008555612408565b82601f106123da57805160ff1916838001178555612408565b82800160010185558215612408579182015b828111156124075782518255916020019190600101906123ec565b5b5090506124159190612419565b5090565b5b8082111561243257600081600090555060010161241a565b5090565b6000612449612444846137dd565b6137ac565b90508281526020810184848401111561246157600080fd5b61246c8482856139ee565b509392505050565b60008135905061248381613ba9565b92915050565b60008135905061249881613bc0565b92915050565b6000813590506124ad81613bd7565b92915050565b6000815190506124c281613bd7565b92915050565b600082601f8301126124d957600080fd5b81356124e9848260208601612436565b91505092915050565b60008135905061250181613bee565b92915050565b60006020828403121561251957600080fd5b600061252784828501612474565b91505092915050565b6000806040838503121561254357600080fd5b600061255185828601612474565b925050602061256285828601612474565b9150509250929050565b60008060006060848603121561258157600080fd5b600061258f86828701612474565b93505060206125a086828701612474565b92505060406125b1868287016124f2565b9150509250925092565b600080600080608085870312156125d157600080fd5b60006125df87828801612474565b94505060206125f087828801612474565b9350506040612601878288016124f2565b925050606085013567ffffffffffffffff81111561261e57600080fd5b61262a878288016124c8565b91505092959194509250565b6000806040838503121561264957600080fd5b600061265785828601612474565b925050602061266885828601612489565b9150509250929050565b6000806040838503121561268557600080fd5b600061269385828601612474565b92505060206126a4858286016124f2565b9150509250929050565b6000602082840312156126c057600080fd5b60006126ce8482850161249e565b91505092915050565b6000602082840312156126e957600080fd5b60006126f7848285016124b3565b91505092915050565b60006020828403121561271257600080fd5b6000612720848285016124f2565b91505092915050565b6127328161397a565b82525050565b6127418161398c565b82525050565b600061275282613822565b61275c8185613838565b935061276c8185602086016139fd565b61277581613b98565b840191505092915050565b600061278b8261382d565b6127958185613849565b93506127a58185602086016139fd565b6127ae81613b98565b840191505092915050565b60006127c48261382d565b6127ce818561385a565b93506127de8185602086016139fd565b80840191505092915050565b600081546127f781613a30565b612801818661385a565b9450600182166000811461281c576001811461282d57612860565b60ff19831686528186019350612860565b6128368561380d565b60005b8381101561285857815481890152600182019150602081019050612839565b838801955050505b50505092915050565b6000612876603283613849565b91507f4552433732313a207472616e7366657220746f206e6f6e20455243373231526560008301527f63656976657220696d706c656d656e74657200000000000000000000000000006020830152604082019050919050565b60006128dc600b8361385a565b91507f464f555254485f574f52440000000000000000000000000000000000000000006000830152600b82019050919050565b600061291c601c83613849565b91507f4552433732313a20746f6b656e20616c7265616479206d696e746564000000006000830152602082019050919050565b600061295c60088361385a565b91507f20706f64636173740000000000000000000000000000000000000000000000006000830152600882019050919050565b600061299c600a8361385a565b91507f54484952445f574f5244000000000000000000000000000000000000000000006000830152600a82019050919050565b60006129dc606f8361385a565b91507f222c20226465736372697074696f6e223a20224120636f6c6c656374696f6e2060008301527f6f6620766572792072617265206d6f6d656e747320696e2070656f706c65732060208301527f636172656572732e222c2022696d616765223a2022646174613a696d6167652f60408301527f7376672b786d6c3b6261736536342c00000000000000000000000000000000006060830152606f82019050919050565b6000612a8e602483613849565b91507f4552433732313a207472616e7366657220746f20746865207a65726f2061646460008301527f72657373000000000000000000000000000000000000000000000000000000006020830152604082019050919050565b6000612af4601983613849565b91507f4552433732313a20617070726f766520746f2063616c6c6572000000000000006000830152602082019050919050565b6000612b34600b8361385a565b91507f5345434f4e445f574f52440000000000000000000000000000000000000000006000830152600b82019050919050565b6000612b74602c83613849565b91507f4552433732313a206f70657261746f7220717565727920666f72206e6f6e657860008301527f697374656e7420746f6b656e00000000000000000000000000000000000000006020830152604082019050919050565b6000612bda600d8361385a565b91507f3c2f746578743e3c2f7376673e000000000000000000000000000000000000006000830152600d82019050919050565b6000612c1a603883613849565b91507f4552433732313a20617070726f76652063616c6c6572206973206e6f74206f7760008301527f6e6572206e6f7220617070726f76656420666f7220616c6c00000000000000006020830152604082019050919050565b6000612c80602a83613849565b91507f4552433732313a2062616c616e636520717565727920666f7220746865207a6560008301527f726f2061646472657373000000000000000000000000000000000000000000006020830152604082019050919050565b6000612ce660128361385a565b91507f20737461727475702069676e6f72696e672000000000000000000000000000006000830152601282019050919050565b6000612d26602983613849565b91507f4552433732313a206f776e657220717565727920666f72206e6f6e657869737460008301527f656e7420746f6b656e00000000000000000000000000000000000000000000006020830152604082019050919050565b6000612d8c602e83613849565b91507f45524337323155524953746f726167653a2055524920736574206f66206e6f6e60008301527f6578697374656e7420746f6b656e0000000000000000000000000000000000006020830152604082019050919050565b6000612df260048361385a565b91507f20696e20000000000000000000000000000000000000000000000000000000006000830152600482019050919050565b6000612e32601e83613849565b91507f4f6e6c79203530204e46547320746f206265206d696e746564206d61782100006000830152602082019050919050565b6000612e7260028361385a565b91507f227d0000000000000000000000000000000000000000000000000000000000006000830152600282019050919050565b6000612eb2602083613849565b91507f4552433732313a206d696e7420746f20746865207a65726f20616464726573736000830152602082019050919050565b6000612ef2603183613849565b91507f45524337323155524953746f726167653a2055524920717565727920666f722060008301527f6e6f6e6578697374656e7420746f6b656e0000000000000000000000000000006020830152604082019050919050565b6000612f58602c83613849565b91507f4552433732313a20617070726f76656420717565727920666f72206e6f6e657860008301527f697374656e7420746f6b656e00000000000000000000000000000000000000006020830152604082019050919050565b6000612fbe60028361385a565b91507f41200000000000000000000000000000000000000000000000000000000000006000830152600282019050919050565b6000612ffe602983613849565b91507f4552433732313a207472616e73666572206f6620746f6b656e2074686174206960008301527f73206e6f74206f776e00000000000000000000000000000000000000000000006020830152604082019050919050565b6000613064602f83613849565b91507f4552433732314d657461646174613a2055524920717565727920666f72206e6f60008301527f6e6578697374656e7420746f6b656e00000000000000000000000000000000006020830152604082019050919050565b60006130ca600a8361385a565b91507f7b226e616d65223a2022000000000000000000000000000000000000000000006000830152600a82019050919050565b600061310a602183613849565b91507f4552433732313a20617070726f76616c20746f2063757272656e74206f776e6560008301527f72000000000000000000000000000000000000000000000000000000000000006020830152604082019050919050565b6000613170600a8361385a565b91507f46495253545f574f5244000000000000000000000000000000000000000000006000830152600a82019050919050565b60006131b0601d8361385a565b91507f646174613a6170706c69636174696f6e2f6a736f6e3b6261736536342c0000006000830152601d82019050919050565b60006131f0603183613849565b91507f4552433732313a207472616e736665722063616c6c6572206973206e6f74206f60008301527f776e6572206e6f7220617070726f7665640000000000000000000000000000006020830152604082019050919050565b600061325660188361385a565b91507f207768696c65206c697374656e696e6720746f207468652000000000000000006000830152601882019050919050565b613292816139e4565b82525050565b60006132a482846127b9565b915081905092915050565b60006132bb82856127b9565b91506132c782846127b9565b91508190509392505050565b60006132df82856127ea565b91506132eb82846127b9565b91506132f682612bcd565b91508190509392505050565b600061330d826128cf565b915061331982846127b9565b915081905092915050565b600061332f8261298f565b915061333b82846127b9565b915081905092915050565b600061335182612b27565b915061335d82846127b9565b915081905092915050565b600061337382612fb1565b915061337f82876127b9565b915061338a82612de5565b915061339682866127b9565b91506133a182612cd9565b91506133ad82856127b9565b91506133b882613249565b91506133c482846127b9565b91506133cf8261294f565b915081905095945050505050565b60006133e8826130bd565b91506133f482856127b9565b91506133ff826129cf565b915061340b82846127b9565b915061341682612e65565b91508190509392505050565b600061342d82613163565b915061343982846127b9565b915081905092915050565b600061344f826131a3565b915061345b82846127b9565b915081905092915050565b600060208201905061347b6000830184612729565b92915050565b60006080820190506134966000830187612729565b6134a36020830186612729565b6134b06040830185613289565b81810360608301526134c28184612747565b905095945050505050565b60006040820190506134e26000830185612729565b6134ef6020830184613289565b9392505050565b600060208201905061350b6000830184612738565b92915050565b6000602082019050818103600083015261352b8184612780565b905092915050565b6000606082019050818103600083015261354d8186612780565b905061355c6020830185613289565b6135696040830184612729565b949350505050565b6000602082019050818103600083015261358a81612869565b9050919050565b600060208201905081810360008301526135aa8161290f565b9050919050565b600060208201905081810360008301526135ca81612a81565b9050919050565b600060208201905081810360008301526135ea81612ae7565b9050919050565b6000602082019050818103600083015261360a81612b67565b9050919050565b6000602082019050818103600083015261362a81612c0d565b9050919050565b6000602082019050818103600083015261364a81612c73565b9050919050565b6000602082019050818103600083015261366a81612d19565b9050919050565b6000602082019050818103600083015261368a81612d7f565b9050919050565b600060208201905081810360008301526136aa81612e25565b9050919050565b600060208201905081810360008301526136ca81612ea5565b9050919050565b600060208201905081810360008301526136ea81612ee5565b9050919050565b6000602082019050818103600083015261370a81612f4b565b9050919050565b6000602082019050818103600083015261372a81612ff1565b9050919050565b6000602082019050818103600083015261374a81613057565b9050919050565b6000602082019050818103600083015261376a816130fd565b9050919050565b6000602082019050818103600083015261378a816131e3565b9050919050565b60006020820190506137a66000830184613289565b92915050565b6000604051905081810181811067ffffffffffffffff821117156137d3576137d2613b69565b5b8060405250919050565b600067ffffffffffffffff8211156137f8576137f7613b69565b5b601f19601f8301169050602081019050919050565b60008190508160005260206000209050919050565b600081519050919050565b600081519050919050565b600082825260208201905092915050565b600082825260208201905092915050565b600081905092915050565b6000613870826139e4565b915061387b836139e4565b9250827fffffffffffffffffffffffffffffffffffffffffffffffffffffffffffffffff038211156138b0576138af613adc565b5b828201905092915050565b60006138c6826139e4565b91506138d1836139e4565b9250826138e1576138e0613b0b565b5b828204905092915050565b60006138f7826139e4565b9150613902836139e4565b9250817fffffffffffffffffffffffffffffffffffffffffffffffffffffffffffffffff048311821515161561393b5761393a613adc565b5b828202905092915050565b6000613951826139e4565b915061395c836139e4565b92508282101561396f5761396e613adc565b5b828203905092915050565b6000613985826139c4565b9050919050565b60008115159050919050565b60007fffffffff0000000000000000000000000000000000000000000000000000000082169050919050565b600073ffffffffffffffffffffffffffffffffffffffff82169050919050565b6000819050919050565b82818337600083830152505050565b60005b83811015613a1b578082015181840152602081019050613a00565b83811115613a2a576000848401525b50505050565b60006002820490506001821680613a4857607f821691505b60208210811415613a5c57613a5b613b3a565b5b50919050565b6000613a6d826139e4565b91507fffffffffffffffffffffffffffffffffffffffffffffffffffffffffffffffff821415613aa057613a9f613adc565b5b600182019050919050565b6000613ab6826139e4565b9150613ac1836139e4565b925082613ad157613ad0613b0b565b5b828206905092915050565b7f4e487b7100000000000000000000000000000000000000000000000000000000600052601160045260246000fd5b7f4e487b7100000000000000000000000000000000000000000000000000000000600052601260045260246000fd5b7f4e487b7100000000000000000000000000000000000000000000000000000000600052602260045260246000fd5b7f4e487b7100000000000000000000000000000000000000000000000000000000600052604160045260246000fd5b6000601f19601f8301169050919050565b613bb28161397a565b8114613bbd57600080fd5b50565b613bc98161398c565b8114613bd457600080fd5b50565b613be081613998565b8114613beb57600080fd5b50565b613bf7816139e4565b8114613c0257600080fd5b5056fe416e204e465420772f20494420257320686173206265656e206d696e74656420746f2025734142434445464748494a4b4c4d4e4f505152535455565758595a6162636465666768696a6b6c6d6e6f707172737475767778797a303132333435363738392b2fa26469706673582212207a4bfaa30e0d3f898c996f9fc58318957c5a060f44729d758c06ff29aa564f0064736f6c634300080000333c73766720786d6c6e733d27687474703a2f2f7777772e77332e6f72672f323030302f73766727207072657365727665417370656374526174696f3d27784d696e594d696e206d656574272077696474683d273130302527206865696768743d2731303025272076696577426f783d273020302033353020333530273e3c7374796c653e2e62617365207b2066696c6c3a2077686974653b20666f6e742d66616d696c793a2073657269663b20666f6e742d73697a653a3570783b207d3c2f7374796c653e3c726563742077696474683d273130302527206865696768743d2731303025272066696c6c3d27626c75652720666c6f61743d276c65667427202f3e203c7465787420783d2735302720793d2735302720636c6173733d27626173652720646f6d696e616e742d626173656c696e653d276c656674272020746578742d616e63686f723d276c656674273e",
  "linkReferences": {},
  "deployedLinkReferences": {}
}